:100000000C9434000C943E000C943E000C943E0082
:100010000C943E000C943E000C943E000C943E0068
:100020000C943E000C943E000C943E000C943E0058
:100030000C943E000C943E000C943E000C943E0048
:100040000C943E000C943E000C943E000C943E0038
:100050000C943E000C943E000C943E000C943E0028
:100060000C943E000C943E0011241FBECFEFD8E04C
:10007000DEBFCDBF0E9440000C9422010C94000012
:100080008FEF84B917B815B8409A61E070E0E7E0E7
:10009000F0E0EE24E3946894FF24F2F800E110E429
:1000A000D2E0C8E0B0E2A0E83099FECF80E090E076
:1000B00045B19B01082E02C0220F331F0A94E2F7BC
:1000C000242B25B92FE936E841E02150304040404B
:1000D000E1F700C0000001968830910549F780E003
:1000E00090E035B1AB01082E02C0440F551F0A94B1
:1000F000E2F7242F2095232325B92FE936E841E0A4
:10010000215030404040E1F700C0000001968830A7
:10011000910539F7309BCACF15B880E090E09F0178
:10012000281B390BAB0102C0440F551F2A95E2F77B
:100130009B01082E02C0220F331F0A94E2F7242BE2
:1001400025B92FE936E841E0215030404040E1F741
:1001500000C0000001968830910509F7309BDDCF83
:1001600015B880E090E09B01082E02C0220F331FDB
:100170000A94E2F725B92FE936E841E021503040F2
:100180004040E1F700C0000001968830910559F722
:10019000309BE7CF15B8E5B88FE996E821E08150AC
:1001A00090402040E1F700C00000F5B83FE946E884
:1001B00081E0315040408040E1F700C0000005B9C7
:1001C0009FE926E831E0915020403040E1F700C03F
:1001D000000015B94FE986E891E041508040904019
:1001E000E1F700C00000309BD6CF15B8D5B92FE994
:1001F00036E841E0215030404040E1F700C00000C7
:10020000C5B98FE996E821E0815090402040E1F7A0
:1002100000C00000B5B93FE946E881E031504040F8
:100220008040E1F700C00000A5B99FE926E831E071
:10023000915020403040E1F700C00000309BD6CF05
:0802400015B832CFF894FFCF8E
:00000001FF
